{
  "_format": "hh-sol-artifact-1",
  "contractName": "PebbleNFT",
  "sourceName": "contracts/PebbleNFT.sol",
  "abi": [
    {
      "inputs": [
        {
          "internalType": "string",
          "name": "baseURI_",
          "type": "string"
        },
        {
          "internalType": "address",
          "name": "stoneAddress_",
          "type": "address"
        },
        {
          "internalType": "address",
          "name": "permitter_",
          "type": "address"
        }
      ],
      "stateMutability": "nonpayable",
      "type": "constructor"
    },
    {
      "inputs": [
        {
          "internalType": "uint256",
          "name": "tokenId",
          "type": "uint256"
        },
        {
          "internalType": "uint256",
          "name": "mintedAt",
          "type": "uint256"
        },
        {
          "internalType": "uint256",
          "name": "burnDelay",
          "type": "uint256"
        },
        {
          "internalType": "uint256",
          "name": "blockTimestamp",
          "type": "uint256"
        }
      ],
      "name": "BurnDelayNotPassed",
      "type": "error"
    },
    {
      "inputs": [],
      "name": "ECDSAInvalidSignature",
      "type": "error"
    },
    {
      "inputs": [
        {
          "internalType": "uint256",
          "name": "length",
          "type": "uint256"
        }
      ],
      "name": "ECDSAInvalidSignatureLength",
      "type": "error"
    },
    {
      "inputs": [
        {
          "internalType": "bytes32",
          "name": "s",
          "type": "bytes32"
        }
      ],
      "name": "ECDSAInvalidSignatureS",
      "type": "error"
    },
    {
      "inputs": [],
      "name": "ERC721EnumerableForbiddenBatchMint",
      "type": "error"
    },
    {
      "inputs": [
        {
          "internalType": "address",
          "name": "sender",
          "type": "address"
        },
        {
          "internalType": "uint256",
          "name": "tokenId",
          "type": "uint256"
        },
        {
          "internalType": "address",
          "name": "owner",
          "type": "address"
        }
      ],
      "name": "ERC721IncorrectOwner",
      "type": "error"
    },
    {
      "inputs": [
        {
          "internalType": "address",
          "name": "operator",
          "type": "address"
        },
        {
          "internalType": "uint256",
          "name": "tokenId",
          "type": "uint256"
        }
      ],
      "name": "ERC721InsufficientApproval",
      "type": "error"
    },
    {
      "inputs": [
        {
          "internalType": "address",
          "name": "approver",
          "type": "address"
        }
      ],
      "name": "ERC721InvalidApprover",
      "type": "error"
    },
    {
      "inputs": [
        {
          "internalType": "address",
          "name": "operator",
          "type": "address"
        }
      ],
      "name": "ERC721InvalidOperator",
      "type": "error"
    },
    {
      "inputs": [
        {
          "internalType": "address",
          "name": "owner",
          "type": "address"
        }
      ],
      "name": "ERC721InvalidOwner",
      "type": "error"
    },
    {
      "inputs": [
        {
          "internalType": "address",
          "name": "receiver",
          "type": "address"
        }
      ],
      "name": "ERC721InvalidReceiver",
      "type": "error"
    },
    {
      "inputs": [
        {
          "internalType": "address",
          "name": "sender",
          "type": "address"
        }
      ],
      "name": "ERC721InvalidSender",
      "type": "error"
    },
    {
      "inputs": [
        {
          "internalType": "uint256",
          "name": "tokenId",
          "type": "uint256"
        }
      ],
      "name": "ERC721NonexistentToken",
      "type": "error"
    },
    {
      "inputs": [
        {
          "internalType": "address",
          "name": "owner",
          "type": "address"
        },
        {
          "internalType": "uint256",
          "name": "index",
          "type": "uint256"
        }
      ],
      "name": "ERC721OutOfBoundsIndex",
      "type": "error"
    },
    {
      "inputs": [
        {
          "internalType": "uint256",
          "name": "tokenId",
          "type": "uint256"
        },
        {
          "internalType": "address",
          "name": "owner",
          "type": "address"
        },
        {
          "internalType": "address",
          "name": "msgSender",
          "type": "address"
        }
      ],
      "name": "NotOwner",
      "type": "error"
    },
    {
      "inputs": [
        {
          "internalType": "address",
          "name": "permitter",
          "type": "address"
        },
        {
          "internalType": "address",
          "name": "signer",
          "type": "address"
        }
      ],
      "name": "NotPermitter",
      "type": "error"
    },
    {
      "inputs": [
        {
          "internalType": "uint256",
          "name": "expiration",
          "type": "uint256"
        },
        {
          "internalType": "uint256",
          "name": "blockTimestamp",
          "type": "uint256"
        }
      ],
      "name": "SignatureExpired",
      "type": "error"
    },
    {
      "anonymous": false,
      "inputs": [
        {
          "indexed": true,
          "internalType": "address",
          "name": "owner",
          "type": "address"
        },
        {
          "indexed": true,
          "internalType": "address",
          "name": "approved",
          "type": "address"
        },
        {
          "indexed": true,
          "internalType": "uint256",
          "name": "tokenId",
          "type": "uint256"
        }
      ],
      "name": "Approval",
      "type": "event"
    },
    {
      "anonymous": false,
      "inputs": [
        {
          "indexed": true,
          "internalType": "address",
          "name": "owner",
          "type": "address"
        },
        {
          "indexed": true,
          "internalType": "address",
          "name": "operator",
          "type": "address"
        },
        {
          "indexed": false,
          "internalType": "bool",
          "name": "approved",
          "type": "bool"
        }
      ],
      "name": "ApprovalForAll",
      "type": "event"
    },
    {
      "anonymous": false,
      "inputs": [
        {
          "indexed": false,
          "internalType": "uint256",
          "name": "tokenId",
          "type": "uint256"
        }
      ],
      "name": "Burned",
      "type": "event"
    },
    {
      "anonymous": false,
      "inputs": [
        {
          "indexed": false,
          "internalType": "uint256",
          "name": "tokenId",
          "type": "uint256"
        }
      ],
      "name": "Minted",
      "type": "event"
    },
    {
      "anonymous": false,
      "inputs": [
        {
          "indexed": true,
          "internalType": "address",
          "name": "from",
          "type": "address"
        },
        {
          "indexed": true,
          "internalType": "address",
          "name": "to",
          "type": "address"
        },
        {
          "indexed": true,
          "internalType": "uint256",
          "name": "tokenId",
          "type": "uint256"
        }
      ],
      "name": "Transfer",
      "type": "event"
    },
    {
      "inputs": [
        {
          "internalType": "address",
          "name": "to",
          "type": "address"
        },
        {
          "internalType": "uint256",
          "name": "tokenId",
          "type": "uint256"
        }
      ],
      "name": "approve",
      "outputs": [],
      "stateMutability": "nonpayable",
      "type": "function"
    },
    {
      "inputs": [
        {
          "internalType": "address",
          "name": "owner",
          "type": "address"
        }
      ],
      "name": "balanceOf",
      "outputs": [
        {
          "internalType": "uint256",
          "name": "",
          "type": "uint256"
        }
      ],
      "stateMutability": "view",
      "type": "function"
    },
    {
      "inputs": [],
      "name": "baseURI",
      "outputs": [
        {
          "internalType": "string",
          "name": "",
          "type": "string"
        }
      ],
      "stateMutability": "view",
      "type": "function"
    },
    {
      "inputs": [
        {
          "internalType": "uint256[]",
          "name": "tokenIds",
          "type": "uint256[]"
        }
      ],
      "name": "batchBurn",
      "outputs": [],
      "stateMutability": "nonpayable",
      "type": "function"
    },
    {
      "inputs": [
        {
          "internalType": "uint256[]",
          "name": "tokenIds",
          "type": "uint256[]"
        },
        {
          "internalType": "uint256",
          "name": "expiration",
          "type": "uint256"
        },
        {
          "internalType": "bytes",
          "name": "signature",
          "type": "bytes"
        }
      ],
      "name": "batchBurnWithPermit",
      "outputs": [],
      "stateMutability": "nonpayable",
      "type": "function"
    },
    {
      "inputs": [
        {
          "internalType": "address",
          "name": "to",
          "type": "address"
        },
        {
          "internalType": "uint256",
          "name": "number",
          "type": "uint256"
        }
      ],
      "name": "batchMint",
      "outputs": [],
      "stateMutability": "nonpayable",
      "type": "function"
    },
    {
      "inputs": [
        {
          "internalType": "uint256",
          "name": "tokenId",
          "type": "uint256"
        }
      ],
      "name": "getApproved",
      "outputs": [
        {
          "internalType": "address",
          "name": "",
          "type": "address"
        }
      ],
      "stateMutability": "view",
      "type": "function"
    },
    {
      "inputs": [
        {
          "internalType": "address",
          "name": "owner",
          "type": "address"
        }
      ],
      "name": "getOwnedTokens",
      "outputs": [
        {
          "internalType": "uint256[]",
          "name": "",
          "type": "uint256[]"
        }
      ],
      "stateMutability": "view",
      "type": "function"
    },
    {
      "inputs": [
        {
          "internalType": "address",
          "name": "owner",
          "type": "address"
        },
        {
          "internalType": "address",
          "name": "operator",
          "type": "address"
        }
      ],
      "name": "isApprovedForAll",
      "outputs": [
        {
          "internalType": "bool",
          "name": "",
          "type": "bool"
        }
      ],
      "stateMutability": "view",
      "type": "function"
    },
    {
      "inputs": [],
      "name": "name",
      "outputs": [
        {
          "internalType": "string",
          "name": "",
          "type": "string"
        }
      ],
      "stateMutability": "view",
      "type": "function"
    },
    {
      "inputs": [],
      "name": "nextTokenId",
      "outputs": [
        {
          "internalType": "uint256",
          "name": "",
          "type": "uint256"
        }
      ],
      "stateMutability": "view",
      "type": "function"
    },
    {
      "inputs": [
        {
          "internalType": "uint256",
          "name": "tokenId",
          "type": "uint256"
        }
      ],
      "name": "ownerOf",
      "outputs": [
        {
          "internalType": "address",
          "name": "",
          "type": "address"
        }
      ],
      "stateMutability": "view",
      "type": "function"
    },
    {
      "inputs": [],
      "name": "permitter",
      "outputs": [
        {
          "internalType": "address",
          "name": "",
          "type": "address"
        }
      ],
      "stateMutability": "view",
      "type": "function"
    },
    {
      "inputs": [
        {
          "internalType": "address",
          "name": "from",
          "type": "address"
        },
        {
          "internalType": "address",
          "name": "to",
          "type": "address"
        },
        {
          "internalType": "uint256",
          "name": "tokenId",
          "type": "uint256"
        }
      ],
      "name": "safeTransferFrom",
      "outputs": [],
      "stateMutability": "nonpayable",
      "type": "function"
    },
    {
      "inputs": [
        {
          "internalType": "address",
          "name": "from",
          "type": "address"
        },
        {
          "internalType": "address",
          "name": "to",
          "type": "address"
        },
        {
          "internalType": "uint256",
          "name": "tokenId",
          "type": "uint256"
        },
        {
          "internalType": "bytes",
          "name": "data",
          "type": "bytes"
        }
      ],
      "name": "safeTransferFrom",
      "outputs": [],
      "stateMutability": "nonpayable",
      "type": "function"
    },
    {
      "inputs": [
        {
          "internalType": "address",
          "name": "operator",
          "type": "address"
        },
        {
          "internalType": "bool",
          "name": "approved",
          "type": "bool"
        }
      ],
      "name": "setApprovalForAll",
      "outputs": [],
      "stateMutability": "nonpayable",
      "type": "function"
    },
    {
      "inputs": [
        {
          "internalType": "string",
          "name": "baseURI_",
          "type": "string"
        }
      ],
      "name": "setBaseURI",
      "outputs": [],
      "stateMutability": "nonpayable",
      "type": "function"
    },
    {
      "inputs": [],
      "name": "stoneAddress",
      "outputs": [
        {
          "internalType": "address",
          "name": "",
          "type": "address"
        }
      ],
      "stateMutability": "view",
      "type": "function"
    },
    {
      "inputs": [
        {
          "internalType": "bytes4",
          "name": "interfaceId",
          "type": "bytes4"
        }
      ],
      "name": "supportsInterface",
      "outputs": [
        {
          "internalType": "bool",
          "name": "",
          "type": "bool"
        }
      ],
      "stateMutability": "view",
      "type": "function"
    },
    {
      "inputs": [],
      "name": "symbol",
      "outputs": [
        {
          "internalType": "string",
          "name": "",
          "type": "string"
        }
      ],
      "stateMutability": "view",
      "type": "function"
    },
    {
      "inputs": [
        {
          "internalType": "uint256",
          "name": "index",
          "type": "uint256"
        }
      ],
      "name": "tokenByIndex",
      "outputs": [
        {
          "internalType": "uint256",
          "name": "",
          "type": "uint256"
        }
      ],
      "stateMutability": "view",
      "type": "function"
    },
    {
      "inputs": [
        {
          "internalType": "address",
          "name": "owner",
          "type": "address"
        },
        {
          "internalType": "uint256",
          "name": "index",
          "type": "uint256"
        }
      ],
      "name": "tokenOfOwnerByIndex",
      "outputs": [
        {
          "internalType": "uint256",
          "name": "",
          "type": "uint256"
        }
      ],
      "stateMutability": "view",
      "type": "function"
    },
    {
      "inputs": [
        {
          "internalType": "uint256",
          "name": "tokenId",
          "type": "uint256"
        }
      ],
      "name": "tokenURI",
      "outputs": [
        {
          "internalType": "string",
          "name": "",
          "type": "string"
        }
      ],
      "stateMutability": "view",
      "type": "function"
    },
    {
      "inputs": [],
      "name": "totalSupply",
      "outputs": [
        {
          "internalType": "uint256",
          "name": "",
          "type": "uint256"
        }
      ],
      "stateMutability": "view",
      "type": "function"
    },
    {
      "inputs": [
        {
          "internalType": "address",
          "name": "from",
          "type": "address"
        },
        {
          "internalType": "address",
          "name": "to",
          "type": "address"
        },
        {
          "internalType": "uint256",
          "name": "tokenId",
          "type": "uint256"
        }
      ],
      "name": "transferFrom",
      "outputs": [],
      "stateMutability": "nonpayable",
      "type": "function"
    }
  ],
  "bytecode": "0x60806040526000600d553480156200001657600080fd5b506040516200447e3803806200447e83398181016040528101906200003c919062000363565b6040518060400160405280600981526020017f506562626c654e465400000000000000000000000000000000000000000000008152506040518060400160405280600481526020017f504e4654000000000000000000000000000000000000000000000000000000008152508160009081620000b9919062000629565b508060019081620000cb919062000629565b50505082600b9081620000df919062000629565b5081600a60006101000a81548173ffffffffffffffffffffffffffffffffffffffff021916908373ffffffffffffffffffffffffffffffffffffffff16021790555080600c60006101000a81548173ffffffffffffffffffffffffffffffffffffffff021916908373ffffffffffffffffffffffffffffffffffffffff16021790555050505062000710565b6000604051905090565b600080fd5b600080fd5b600080fd5b600080fd5b6000601f19601f8301169050919050565b7f4e487b7100000000000000000000000000000000000000000000000000000000600052604160045260246000fd5b620001d48262000189565b810181811067ffffffffffffffff82111715620001f657620001f56200019a565b5b80604052505050565b60006200020b6200016b565b9050620002198282620001c9565b919050565b600067ffffffffffffffff8211156200023c576200023b6200019a565b5b620002478262000189565b9050602081019050919050565b60005b838110156200027457808201518184015260208101905062000257565b60008484015250505050565b60006200029762000291846200021e565b620001ff565b905082815260208101848484011115620002b657620002b562000184565b5b620002c384828562000254565b509392505050565b600082601f830112620002e357620002e26200017f565b5b8151620002f584826020860162000280565b91505092915050565b600073ffffffffffffffffffffffffffffffffffffffff82169050919050565b60006200032b82620002fe565b9050919050565b6200033d816200031e565b81146200034957600080fd5b50565b6000815190506200035d8162000332565b92915050565b6000806000606084860312156200037f576200037e62000175565b5b600084015167ffffffffffffffff811115620003a0576200039f6200017a565b5b620003ae86828701620002cb565b9350506020620003c1868287016200034c565b9250506040620003d4868287016200034c565b9150509250925092565b600081519050919050565b7f4e487b7100000000000000000000000000000000000000000000000000000000600052602260045260246000fd5b600060028204905060018216806200043157607f821691505b602082108103620004475762000446620003e9565b5b50919050565b60008190508160005260206000209050919050565b60006020601f8301049050919050565b600082821b905092915050565b600060088302620004b17fffffffffffffffffffffffffffffffffffffffffffffffffffffffffffffffff8262000472565b620004bd868362000472565b95508019841693508086168417925050509392505050565b6000819050919050565b6000819050919050565b60006200050a62000504620004fe84620004d5565b620004df565b620004d5565b9050919050565b6000819050919050565b6200052683620004e9565b6200053e620005358262000511565b8484546200047f565b825550505050565b600090565b6200055562000546565b620005628184846200051b565b505050565b5b818110156200058a576200057e6000826200054b565b60018101905062000568565b5050565b601f821115620005d957620005a3816200044d565b620005ae8462000462565b81016020851015620005be578190505b620005d6620005cd8562000462565b83018262000567565b50505b505050565b600082821c905092915050565b6000620005fe60001984600802620005de565b1980831691505092915050565b6000620006198383620005eb565b9150826002028217905092915050565b6200063482620003de565b67ffffffffffffffff81111562000650576200064f6200019a565b5b6200065c825462000418565b620006698282856200058e565b600060209050601f831160018114620006a157600084156200068c578287015190505b6200069885826200060b565b86555062000708565b601f198416620006b1866200044d565b60005b82811015620006db57848901518255600182019150602085019450602081019050620006b4565b86831015620006fb5784890151620006f7601f891682620005eb565b8355505b6001600288020188555050505b505050505050565b613d5e80620007206000396000f3fe608060405234801561001057600080fd5b50600436106101735760003560e01c8063529d2ef3116100de57806395d89b4111610097578063c87b56dd11610071578063c87b56dd1461044a578063d9d616551461047a578063dc8e92ea146104aa578063e985e9c5146104c657610173565b806395d89b41146103f4578063a22cb46514610412578063b88d4fde1461042e57610173565b8063529d2ef31461031e57806355f804b31461033c5780636352211e146103585780636c0360eb1461038857806370a08231146103a657806375794a3c146103d657610173565b806323b872dd1161013057806323b872dd1461024e5780632f745c591461026a57806334d391691461029a57806342842e0e146102b657806343508b05146102d25780634f6ccce7146102ee57610173565b806301ffc9a71461017857806306fdde03146101a8578063081812fc146101c6578063095ea7b3146101f657806318160ddd146102125780631840d20e14610230575b600080fd5b610192600480360381019061018d9190612b08565b6104f6565b60405161019f9190612b50565b60405180910390f35b6101b0610570565b6040516101bd9190612bfb565b60405180910390f35b6101e060048036038101906101db9190612c53565b610602565b6040516101ed9190612cc1565b60405180910390f35b610210600480360381019061020b9190612d08565b61061e565b005b61021a610634565b6040516102279190612d57565b60405180910390f35b610238610641565b6040516102459190612cc1565b60405180910390f35b61026860048036038101906102639190612d72565b610667565b005b610284600480360381019061027f9190612d08565b610769565b6040516102919190612d57565b60405180910390f35b6102b460048036038101906102af9190612fc2565b610812565b005b6102d060048036038101906102cb9190612d72565b610a8e565b005b6102ec60048036038101906102e79190612d08565b610aae565b005b61030860048036038101906103039190612c53565b610aef565b6040516103159190612d57565b60405180910390f35b610326610b65565b6040516103339190612cc1565b60405180910390f35b610356600480360381019061035191906130ee565b610b8b565b005b610372600480360381019061036d9190612c53565b610c54565b60405161037f9190612cc1565b60405180910390f35b610390610c66565b60405161039d9190612bfb565b60405180910390f35b6103c060048036038101906103bb9190613137565b610cf4565b6040516103cd9190612d57565b60405180910390f35b6103de610dae565b6040516103eb9190612d57565b60405180910390f35b6103fc610db4565b6040516104099190612bfb565b60405180910390f35b61042c60048036038101906104279190613190565b610e46565b005b610448600480360381019061044391906131d0565b610e5c565b005b610464600480360381019061045f9190612c53565b610e79565b6040516104719190612bfb565b60405180910390f35b610494600480360381019061048f9190613137565b610ee2565b6040516104a19190613311565b60405180910390f35b6104c460048036038101906104bf9190613333565b610fe5565b005b6104e060048036038101906104db919061337c565b611115565b6040516104ed9190612b50565b60405180910390f35b60007f780e9d63000000000000000000000000000000000000000000000000000000007bffffffffffffffffffffffffffffffffffffffffffffffffffffffff1916827bffffffffffffffffffffffffffffffffffffffffffffffffffffffff191614806105695750610568826111a9565b5b9050919050565b60606000805461057f906133eb565b80601f01602080910402602001604051908101604052809291908181526020018280546105ab906133eb565b80156105f85780601f106105cd576101008083540402835291602001916105f8565b820191906000526020600020905b8154815290600101906020018083116105db57829003601f168201915b5050505050905090565b600061060d8261128b565b5061061782611313565b9050919050565b610630828261062b611350565b611358565b5050565b6000600880549050905090565b600a60009054906101000a900473ffffffffffffffffffffffffffffffffffffffff1681565b600073ffffffffffffffffffffffffffffffffffffffff168273ffffffffffffffffffffffffffffffffffffffff16036106d95760006040517f64a0ae920000000000000000000000000000000000000000000000000000000081526004016106d09190612cc1565b60405180910390fd5b60006106ed83836106e8611350565b61136a565b90508373ffffffffffffffffffffffffffffffffffffffff168173ffffffffffffffffffffffffffffffffffffffff1614610763578382826040517f64283d7b00000000000000000000000000000000000000000000000000000000815260040161075a9392919061341c565b60405180910390fd5b50505050565b600061077483610cf4565b82106107b95782826040517fa57d13dc0000000000000000000000000000000000000000000000000000000081526004016107b0929190613453565b60405180910390fd5b600660008473ffffffffffffffffffffffffffffffffffffffff1673ffffffffffffffffffffffffffffffffffffffff168152602001908152602001600020600083815260200190815260200160002054905092915050565b428210156108595781426040517ff88f049000000000000000000000000000000000000000000000000000000000815260040161085092919061347c565b60405180910390fd5b60008333846040516020016108709392919061359e565b604051602081830303815290604052805190602001209050600061089382611487565b905060006108a182856114bd565b9050600c60009054906101000a900473ffffffffffffffffffffffffffffffffffffffff1673ffffffffffffffffffffffffffffffffffffffff168173ffffffffffffffffffffffffffffffffffffffff161461095957600c60009054906101000a900473ffffffffffffffffffffffffffffffffffffffff16816040517f8b61e4520000000000000000000000000000000000000000000000000000000081526004016109509291906135d7565b60405180910390fd5b60005b8651811015610a69573373ffffffffffffffffffffffffffffffffffffffff1661099f88838151811061099257610991613600565b5b6020026020010151610c54565b73ffffffffffffffffffffffffffffffffffffffff1614610a37578681815181106109cd576109cc613600565b5b60200260200101516109f88883815181106109eb576109ea613600565b5b6020026020010151610c54565b336040517f041ba90f000000000000000000000000000000000000000000000000000000008152600401610a2e9392919061362f565b60405180910390fd5b610a5c878281518110610a4d57610a4c613600565b5b602002602001015160016114e9565b808060010191505061095c565b50610a8666b1a2bc2ec500008751610a819190613695565b6115b9565b505050505050565b610aa983838360405180602001604052806000815250610e5c565b505050565b610ac966b1a2bc2ec5000082610ac49190613695565b61165d565b60005b81811015610aea57610add83611703565b8080600101915050610acc565b505050565b6000610af9610634565b8210610b3f576000826040517fa57d13dc000000000000000000000000000000000000000000000000000000008152600401610b36929190613453565b60405180910390fd5b60088281548110610b5357610b52613600565b5b90600052602060002001549050919050565b600c60009054906101000a900473ffffffffffffffffffffffffffffffffffffffff1681565b600c60009054906101000a900473ffffffffffffffffffffffffffffffffffffffff1673ffffffffffffffffffffffffffffffffffffffff163373ffffffffffffffffffffffffffffffffffffffff1614610c4157600c60009054906101000a900473ffffffffffffffffffffffffffffffffffffffff16336040517f8b61e452000000000000000000000000000000000000000000000000000000008152600401610c389291906135d7565b60405180910390fd5b80600b9081610c509190613883565b5050565b6000610c5f8261128b565b9050919050565b600b8054610c73906133eb565b80601f0160208091040260200160405190810160405280929190818152602001828054610c9f906133eb565b8015610cec5780601f10610cc157610100808354040283529160200191610cec565b820191906000526020600020905b815481529060010190602001808311610ccf57829003601f168201915b505050505081565b60008073ffffffffffffffffffffffffffffffffffffffff168273ffffffffffffffffffffffffffffffffffffffff1603610d675760006040517f89c62b64000000000000000000000000000000000000000000000000000000008152600401610d5e9190612cc1565b60405180910390fd5b600360008373ffffffffffffffffffffffffffffffffffffffff1673ffffffffffffffffffffffffffffffffffffffff168152602001908152602001600020549050919050565b600d5481565b606060018054610dc3906133eb565b80601f0160208091040260200160405190810160405280929190818152602001828054610def906133eb565b8015610e3c5780601f10610e1157610100808354040283529160200191610e3c565b820191906000526020600020905b815481529060010190602001808311610e1f57829003601f168201915b5050505050905090565b610e58610e51611350565b838361177f565b5050565b610e67848484610667565b610e73848484846118ee565b50505050565b6060610e848261128b565b506000610e8f611aa5565b90506000815111610eaf5760405180602001604052806000815250610eda565b80610eb984611b37565b604051602001610eca929190613991565b6040516020818303038152906040525b915050919050565b60606000610eef83610cf4565b905060008103610f4b57600067ffffffffffffffff811115610f1457610f13612dca565b5b604051908082528060200260200182016040528015610f425781602001602082028036833780820191505090505b50915050610fe0565b60008167ffffffffffffffff811115610f6757610f66612dca565b5b604051908082528060200260200182016040528015610f955781602001602082028036833780820191505090505b50905060005b82811015610fd957610fad8582610769565b828281518110610fc057610fbf613600565b5b6020026020010181815250508080600101915050610f9b565b5080925050505b919050565b60005b81518110156110f5573373ffffffffffffffffffffffffffffffffffffffff1661102b83838151811061101e5761101d613600565b5b6020026020010151610c54565b73ffffffffffffffffffffffffffffffffffffffff16146110c35781818151811061105957611058613600565b5b602002602001015161108483838151811061107757611076613600565b5b6020026020010151610c54565b336040517f041ba90f0000000000000000000000000000000000000000000000000000000081526004016110ba9392919061362f565b60405180910390fd5b6110e88282815181106110d9576110d8613600565b5b602002602001015160006114e9565b8080600101915050610fe8565b5061111266b1a2bc2ec50000825161110d9190613695565b6115b9565b50565b6000600560008473ffffffffffffffffffffffffffffffffffffffff1673ffffffffffffffffffffffffffffffffffffffff16815260200190815260200160002060008373ffffffffffffffffffffffffffffffffffffffff1673ffffffffffffffffffffffffffffffffffffffff16815260200190815260200160002060009054906101000a900460ff16905092915050565b60007f80ac58cd000000000000000000000000000000000000000000000000000000007bffffffffffffffffffffffffffffffffffffffffffffffffffffffff1916827bffffffffffffffffffffffffffffffffffffffffffffffffffffffff1916148061127457507f5b5e139f000000000000000000000000000000000000000000000000000000007bffffffffffffffffffffffffffffffffffffffffffffffffffffffff1916827bffffffffffffffffffffffffffffffffffffffffffffffffffffffff1916145b80611284575061128382611c05565b5b9050919050565b60008061129783611c6f565b9050600073ffffffffffffffffffffffffffffffffffffffff168173ffffffffffffffffffffffffffffffffffffffff160361130a57826040517f7e2732890000000000000000000000000000000000000000000000000000000081526004016113019190612d57565b60405180910390fd5b80915050919050565b60006004600083815260200190815260200160002060009054906101000a900473ffffffffffffffffffffffffffffffffffffffff169050919050565b600033905090565b6113658383836001611cac565b505050565b600080611378858585611e71565b9050600073ffffffffffffffffffffffffffffffffffffffff168173ffffffffffffffffffffffffffffffffffffffff16036113bc576113b78461208b565b6113fb565b8473ffffffffffffffffffffffffffffffffffffffff168173ffffffffffffffffffffffffffffffffffffffff16146113fa576113f981856120d4565b5b5b600073ffffffffffffffffffffffffffffffffffffffff168573ffffffffffffffffffffffffffffffffffffffff160361143d5761143884612235565b61147c565b8473ffffffffffffffffffffffffffffffffffffffff168173ffffffffffffffffffffffffffffffffffffffff161461147b5761147a8585612306565b5b5b809150509392505050565b60007f19457468657265756d205369676e6564204d6573736167653a0a33320000000060005281601c52603c6000209050919050565b6000806000806114cd8686612391565b9250925092506114dd82826123ed565b82935050505092915050565b80158015611517575062127500600e60008481526020019081526020016000205461151491906139b5565b42105b156115755781600e60008481526020019081526020016000205462127500426040517f504f458400000000000000000000000000000000000000000000000000000000815260040161156c94939291906139e9565b60405180910390fd5b61157e82612551565b7fd83c63197e8e676d80ab0122beba9a9d20f3828839e9a1d6fe81d242e9cd7e6e826040516115ad9190612d57565b60405180910390a15050565b600a60009054906101000a900473ffffffffffffffffffffffffffffffffffffffff1673ffffffffffffffffffffffffffffffffffffffff1663a9059cbb33836040518363ffffffff1660e01b8152600401611616929190613453565b6020604051808303816000875af1158015611635573d6000803e3d6000fd5b505050506040513d601f19601f820116820180604052508101906116599190613a43565b5050565b600a60009054906101000a900473ffffffffffffffffffffffffffffffffffffffff1673ffffffffffffffffffffffffffffffffffffffff166323b872dd3330846040518463ffffffff1660e01b81526004016116bc93929190613a70565b6020604051808303816000875af11580156116db573d6000803e3d6000fd5b505050506040513d601f19601f820116820180604052508101906116ff9190613a43565b5050565b6000600d54905061171482826125d7565b42600e6000838152602001908152602001600020819055507f176b02bb2d12439ff7a20b59f402cca16c76f50508b13ef3166a600eb719354a8160405161175b9190612d57565b60405180910390a1600d600081548092919061177690613aa7565b91905055505050565b600073ffffffffffffffffffffffffffffffffffffffff168273ffffffffffffffffffffffffffffffffffffffff16036117f057816040517f5b08ba180000000000000000000000000000000000000000000000000000000081526004016117e79190612cc1565b60405180910390fd5b80600560008573ffffffffffffffffffffffffffffffffffffffff1673ffffffffffffffffffffffffffffffffffffffff16815260200190815260200160002060008473ffffffffffffffffffffffffffffffffffffffff1673ffffffffffffffffffffffffffffffffffffffff16815260200190815260200160002060006101000a81548160ff0219169083151502179055508173ffffffffffffffffffffffffffffffffffffffff168373ffffffffffffffffffffffffffffffffffffffff167f17307eab39ab6107e8899845ad3d59bd9653f200f220920489ca2b5937696c31836040516118e19190612b50565b60405180910390a3505050565b60008373ffffffffffffffffffffffffffffffffffffffff163b1115611a9f578273ffffffffffffffffffffffffffffffffffffffff1663150b7a02611932611350565b8685856040518563ffffffff1660e01b81526004016119549493929190613b44565b6020604051808303816000875af192505050801561199057506040513d601f19601f8201168201806040525081019061198d9190613ba5565b60015b611a14573d80600081146119c0576040519150601f19603f3d011682016040523d82523d6000602084013e6119c5565b606091505b506000815103611a0c57836040517f64a0ae92000000000000000000000000000000000000000000000000000000008152600401611a039190612cc1565b60405180910390fd5b805181602001fd5b63150b7a0260e01b7bffffffffffffffffffffffffffffffffffffffffffffffffffffffff1916817bffffffffffffffffffffffffffffffffffffffffffffffffffffffff191614611a9d57836040517f64a0ae92000000000000000000000000000000000000000000000000000000008152600401611a949190612cc1565b60405180910390fd5b505b50505050565b6060600b8054611ab4906133eb565b80601f0160208091040260200160405190810160405280929190818152602001828054611ae0906133eb565b8015611b2d5780601f10611b0257610100808354040283529160200191611b2d565b820191906000526020600020905b815481529060010190602001808311611b1057829003601f168201915b5050505050905090565b606060006001611b46846126d0565b01905060008167ffffffffffffffff811115611b6557611b64612dca565b5b6040519080825280601f01601f191660200182016040528015611b975781602001600182028036833780820191505090505b509050600082602001820190505b600115611bfa578080600190039150507f3031323334353637383961626364656600000000000000000000000000000000600a86061a8153600a8581611bee57611bed613bd2565b5b04945060008503611ba5575b819350505050919050565b60007f01ffc9a7000000000000000000000000000000000000000000000000000000007bffffffffffffffffffffffffffffffffffffffffffffffffffffffff1916827bffffffffffffffffffffffffffffffffffffffffffffffffffffffff1916149050919050565b60006002600083815260200190815260200160002060009054906101000a900473ffffffffffffffffffffffffffffffffffffffff169050919050565b8080611ce55750600073ffffffffffffffffffffffffffffffffffffffff168273ffffffffffffffffffffffffffffffffffffffff1614155b15611e19576000611cf58461128b565b9050600073ffffffffffffffffffffffffffffffffffffffff168373ffffffffffffffffffffffffffffffffffffffff1614158015611d6057508273ffffffffffffffffffffffffffffffffffffffff168173ffffffffffffffffffffffffffffffffffffffff1614155b8015611d735750611d718184611115565b155b15611db557826040517fa9fbf51f000000000000000000000000000000000000000000000000000000008152600401611dac9190612cc1565b60405180910390fd5b8115611e1757838573ffffffffffffffffffffffffffffffffffffffff168273ffffffffffffffffffffffffffffffffffffffff167f8c5be1e5ebec7d5bd14f71427d1e84f3dd0314c0f7b2291e5b200ac8c7c3b92560405160405180910390a45b505b836004600085815260200190815260200160002060006101000a81548173ffffffffffffffffffffffffffffffffffffffff021916908373ffffffffffffffffffffffffffffffffffffffff16021790555050505050565b600080611e7d84611c6f565b9050600073ffffffffffffffffffffffffffffffffffffffff168373ffffffffffffffffffffffffffffffffffffffff1614611ebf57611ebe818486612823565b5b600073ffffffffffffffffffffffffffffffffffffffff168173ffffffffffffffffffffffffffffffffffffffff1614611f5057611f01600085600080611cac565b6001600360008373ffffffffffffffffffffffffffffffffffffffff1673ffffffffffffffffffffffffffffffffffffffff168152602001908152602001600020600082825403925050819055505b600073ffffffffffffffffffffffffffffffffffffffff168573ffffffffffffffffffffffffffffffffffffffff1614611fd3576001600360008773ffffffffffffffffffffffffffffffffffffffff1673ffffffffffffffffffffffffffffffffffffffff168152602001908152602001600020600082825401925050819055505b846002600086815260200190815260200160002060006101000a81548173ffffffffffffffffffffffffffffffffffffffff021916908373ffffffffffffffffffffffffffffffffffffffff160217905550838573ffffffffffffffffffffffffffffffffffffffff168273ffffffffffffffffffffffffffffffffffffffff167fddf252ad1be2c89b69c2b068fc378daa952ba7f163c4a11628f55a4df523b3ef60405160405180910390a4809150509392505050565b6008805490506009600083815260200190815260200160002081905550600881908060018154018082558091505060019003906000526020600020016000909190919091505550565b60006120df83610cf4565b90506000600760008481526020019081526020016000205490508181146121c4576000600660008673ffffffffffffffffffffffffffffffffffffffff1673ffffffffffffffffffffffffffffffffffffffff168152602001908152602001600020600084815260200190815260200160002054905080600660008773ffffffffffffffffffffffffffffffffffffffff1673ffffffffffffffffffffffffffffffffffffffff168152602001908152602001600020600084815260200190815260200160002081905550816007600083815260200190815260200160002081905550505b6007600084815260200190815260200160002060009055600660008573ffffffffffffffffffffffffffffffffffffffff1673ffffffffffffffffffffffffffffffffffffffff16815260200190815260200160002060008381526020019081526020016000206000905550505050565b600060016008805490506122499190613c01565b905060006009600084815260200190815260200160002054905060006008838154811061227957612278613600565b5b90600052602060002001549050806008838154811061229b5761229a613600565b5b9060005260206000200181905550816009600083815260200190815260200160002081905550600960008581526020019081526020016000206000905560088054806122ea576122e9613c35565b5b6001900381819060005260206000200160009055905550505050565b6000600161231384610cf4565b61231d9190613c01565b905081600660008573ffffffffffffffffffffffffffffffffffffffff1673ffffffffffffffffffffffffffffffffffffffff168152602001908152602001600020600083815260200190815260200160002081905550806007600084815260200190815260200160002081905550505050565b600080600060418451036123d65760008060006020870151925060408701519150606087015160001a90506123c8888285856128e7565b9550955095505050506123e6565b60006002855160001b9250925092505b9250925092565b6000600381111561240157612400613c64565b5b82600381111561241457612413613c64565b5b031561254d576001600381111561242e5761242d613c64565b5b82600381111561244157612440613c64565b5b03612478576040517ff645eedf00000000000000000000000000000000000000000000000000000000815260040160405180910390fd5b6002600381111561248c5761248b613c64565b5b82600381111561249f5761249e613c64565b5b036124e4578060001c6040517ffce698f70000000000000000000000000000000000000000000000000000000081526004016124db9190612d57565b60405180910390fd5b6003808111156124f7576124f6613c64565b5b82600381111561250a57612509613c64565b5b0361254c57806040517fd78bce0c0000000000000000000000000000000000000000000000000000000081526004016125439190613cac565b60405180910390fd5b5b5050565b6000612560600083600061136a565b9050600073ffffffffffffffffffffffffffffffffffffffff168173ffffffffffffffffffffffffffffffffffffffff16036125d357816040517f7e2732890000000000000000000000000000000000000000000000000000000081526004016125ca9190612d57565b60405180910390fd5b5050565b600073ffffffffffffffffffffffffffffffffffffffff168273ffffffffffffffffffffffffffffffffffffffff16036126495760006040517f64a0ae920000000000000000000000000000000000000000000000000000000081526004016126409190612cc1565b60405180910390fd5b60006126578383600061136a565b9050600073ffffffffffffffffffffffffffffffffffffffff168173ffffffffffffffffffffffffffffffffffffffff16146126cb5760006040517f73c6ac6e0000000000000000000000000000000000000000000000000000000081526004016126c29190612cc1565b60405180910390fd5b505050565b600080600090507a184f03e93ff9f4daa797ed6e38ed64bf6a1f010000000000000000831061272e577a184f03e93ff9f4daa797ed6e38ed64bf6a1f010000000000000000838161272457612723613bd2565b5b0492506040810190505b6d04ee2d6d415b85acef8100000000831061276b576d04ee2d6d415b85acef8100000000838161276157612760613bd2565b5b0492506020810190505b662386f26fc10000831061279a57662386f26fc1000083816127905761278f613bd2565b5b0492506010810190505b6305f5e10083106127c3576305f5e10083816127b9576127b8613bd2565b5b0492506008810190505b61271083106127e85761271083816127de576127dd613bd2565b5b0492506004810190505b6064831061280b576064838161280157612800613bd2565b5b0492506002810190505b600a831061281a576001810190505b80915050919050565b61282e8383836129db565b6128e257600073ffffffffffffffffffffffffffffffffffffffff168373ffffffffffffffffffffffffffffffffffffffff16036128a357806040517f7e27328900000000000000000000000000000000000000000000000000000000815260040161289a9190612d57565b60405180910390fd5b81816040517f177e802f0000000000000000000000000000000000000000000000000000000081526004016128d9929190613453565b60405180910390fd5b505050565b60008060007f7fffffffffffffffffffffffffffffff5d576e7357a4501ddfe92f46681b20a08460001c11156129275760006003859250925092506129d1565b60006001888888886040516000815260200160405260405161294c9493929190613ce3565b6020604051602081039080840390855afa15801561296e573d6000803e3d6000fd5b505050602060405103519050600073ffffffffffffffffffffffffffffffffffffffff168173ffffffffffffffffffffffffffffffffffffffff16036129c257600060016000801b935093509350506129d1565b8060008060001b935093509350505b9450945094915050565b60008073ffffffffffffffffffffffffffffffffffffffff168373ffffffffffffffffffffffffffffffffffffffff1614158015612a9357508273ffffffffffffffffffffffffffffffffffffffff168473ffffffffffffffffffffffffffffffffffffffff161480612a545750612a538484611115565b5b80612a9257508273ffffffffffffffffffffffffffffffffffffffff16612a7a83611313565b73ffffffffffffffffffffffffffffffffffffffff16145b5b90509392505050565b6000604051905090565b600080fd5b600080fd5b60007fffffffff0000000000000000000000000000000000000000000000000000000082169050919050565b612ae581612ab0565b8114612af057600080fd5b50565b600081359050612b0281612adc565b92915050565b600060208284031215612b1e57612b1d612aa6565b5b6000612b2c84828501612af3565b91505092915050565b60008115159050919050565b612b4a81612b35565b82525050565b6000602082019050612b656000830184612b41565b92915050565b600081519050919050565b600082825260208201905092915050565b60005b83811015612ba5578082015181840152602081019050612b8a565b60008484015250505050565b6000601f19601f8301169050919050565b6000612bcd82612b6b565b612bd78185612b76565b9350612be7818560208601612b87565b612bf081612bb1565b840191505092915050565b60006020820190508181036000830152612c158184612bc2565b905092915050565b6000819050919050565b612c3081612c1d565b8114612c3b57600080fd5b50565b600081359050612c4d81612c27565b92915050565b600060208284031215612c6957612c68612aa6565b5b6000612c7784828501612c3e565b91505092915050565b600073ffffffffffffffffffffffffffffffffffffffff82169050919050565b6000612cab82612c80565b9050919050565b612cbb81612ca0565b82525050565b6000602082019050612cd66000830184612cb2565b92915050565b612ce581612ca0565b8114612cf057600080fd5b50565b600081359050612d0281612cdc565b92915050565b60008060408385031215612d1f57612d1e612aa6565b5b6000612d2d85828601612cf3565b9250506020612d3e85828601612c3e565b9150509250929050565b612d5181612c1d565b82525050565b6000602082019050612d6c6000830184612d48565b92915050565b600080600060608486031215612d8b57612d8a612aa6565b5b6000612d9986828701612cf3565b9350506020612daa86828701612cf3565b9250506040612dbb86828701612c3e565b9150509250925092565b600080fd5b7f4e487b7100000000000000000000000000000000000000000000000000000000600052604160045260246000fd5b612e0282612bb1565b810181811067ffffffffffffffff82111715612e2157612e20612dca565b5b80604052505050565b6000612e34612a9c565b9050612e408282612df9565b919050565b600067ffffffffffffffff821115612e6057612e5f612dca565b5b602082029050602081019050919050565b600080fd5b6000612e89612e8484612e45565b612e2a565b90508083825260208201905060208402830185811115612eac57612eab612e71565b5b835b81811015612ed55780612ec18882612c3e565b845260208401935050602081019050612eae565b5050509392505050565b600082601f830112612ef457612ef3612dc5565b5b8135612f04848260208601612e76565b91505092915050565b600080fd5b600067ffffffffffffffff821115612f2d57612f2c612dca565b5b612f3682612bb1565b9050602081019050919050565b82818337600083830152505050565b6000612f65612f6084612f12565b612e2a565b905082815260208101848484011115612f8157612f80612f0d565b5b612f8c848285612f43565b509392505050565b600082601f830112612fa957612fa8612dc5565b5b8135612fb9848260208601612f52565b91505092915050565b600080600060608486031215612fdb57612fda612aa6565b5b600084013567ffffffffffffffff811115612ff957612ff8612aab565b5b61300586828701612edf565b935050602061301686828701612c3e565b925050604084013567ffffffffffffffff81111561303757613036612aab565b5b61304386828701612f94565b9150509250925092565b600067ffffffffffffffff82111561306857613067612dca565b5b61307182612bb1565b9050602081019050919050565b600061309161308c8461304d565b612e2a565b9050828152602081018484840111156130ad576130ac612f0d565b5b6130b8848285612f43565b509392505050565b600082601f8301126130d5576130d4612dc5565b5b81356130e584826020860161307e565b91505092915050565b60006020828403121561310457613103612aa6565b5b600082013567ffffffffffffffff81111561312257613121612aab565b5b61312e848285016130c0565b91505092915050565b60006020828403121561314d5761314c612aa6565b5b600061315b84828501612cf3565b91505092915050565b61316d81612b35565b811461317857600080fd5b50565b60008135905061318a81613164565b92915050565b600080604083850312156131a7576131a6612aa6565b5b60006131b585828601612cf3565b92505060206131c68582860161317b565b9150509250929050565b600080600080608085870312156131ea576131e9612aa6565b5b60006131f887828801612cf3565b945050602061320987828801612cf3565b935050604061321a87828801612c3e565b925050606085013567ffffffffffffffff81111561323b5761323a612aab565b5b61324787828801612f94565b91505092959194509250565b600081519050919050565b600082825260208201905092915050565b6000819050602082019050919050565b61328881612c1d565b82525050565b600061329a838361327f565b60208301905092915050565b6000602082019050919050565b60006132be82613253565b6132c8818561325e565b93506132d38361326f565b8060005b838110156133045781516132eb888261328e565b97506132f6836132a6565b9250506001810190506132d7565b5085935050505092915050565b6000602082019050818103600083015261332b81846132b3565b905092915050565b60006020828403121561334957613348612aa6565b5b600082013567ffffffffffffffff81111561336757613366612aab565b5b61337384828501612edf565b91505092915050565b6000806040838503121561339357613392612aa6565b5b60006133a185828601612cf3565b92505060206133b285828601612cf3565b9150509250929050565b7f4e487b7100000000000000000000000000000000000000000000000000000000600052602260045260246000fd5b6000600282049050600182168061340357607f821691505b602082108103613416576134156133bc565b5b50919050565b60006060820190506134316000830186612cb2565b61343e6020830185612d48565b61344b6040830184612cb2565b949350505050565b60006040820190506134686000830185612cb2565b6134756020830184612d48565b9392505050565b60006040820190506134916000830185612d48565b61349e6020830184612d48565b9392505050565b600081905092915050565b6134b981612c1d565b82525050565b60006134cb83836134b0565b60208301905092915050565b60006134e282613253565b6134ec81856134a5565b93506134f78361326f565b8060005b8381101561352857815161350f88826134bf565b975061351a836132a6565b9250506001810190506134fb565b5085935050505092915050565b60008160601b9050919050565b600061354d82613535565b9050919050565b600061355f82613542565b9050919050565b61357761357282612ca0565b613554565b82525050565b6000819050919050565b61359861359382612c1d565b61357d565b82525050565b60006135aa82866134d7565b91506135b68285613566565b6014820191506135c68284613587565b602082019150819050949350505050565b60006040820190506135ec6000830185612cb2565b6135f96020830184612cb2565b9392505050565b7f4e487b7100000000000000000000000000000000000000000000000000000000600052603260045260246000fd5b60006060820190506136446000830186612d48565b6136516020830185612cb2565b61365e6040830184612cb2565b949350505050565b7f4e487b7100000000000000000000000000000000000000000000000000000000600052601160045260246000fd5b60006136a082612c1d565b91506136ab83612c1d565b92508282026136b981612c1d565b915082820484148315176136d0576136cf613666565b5b5092915050565b60008190508160005260206000209050919050565b60006020601f8301049050919050565b600082821b905092915050565b6000600883026137397fffffffffffffffffffffffffffffffffffffffffffffffffffffffffffffffff826136fc565b61374386836136fc565b95508019841693508086168417925050509392505050565b6000819050919050565b600061378061377b61377684612c1d565b61375b565b612c1d565b9050919050565b6000819050919050565b61379a83613765565b6137ae6137a682613787565b848454613709565b825550505050565b600090565b6137c36137b6565b6137ce818484613791565b505050565b5b818110156137f2576137e76000826137bb565b6001810190506137d4565b5050565b601f82111561383757613808816136d7565b613811846136ec565b81016020851015613820578190505b61383461382c856136ec565b8301826137d3565b50505b505050565b600082821c905092915050565b600061385a6000198460080261383c565b1980831691505092915050565b60006138738383613849565b9150826002028217905092915050565b61388c82612b6b565b67ffffffffffffffff8111156138a5576138a4612dca565b5b6138af82546133eb565b6138ba8282856137f6565b600060209050601f8311600181146138ed57600084156138db578287015190505b6138e58582613867565b86555061394d565b601f1984166138fb866136d7565b60005b82811015613923578489015182556001820191506020850194506020810190506138fe565b86831015613940578489015161393c601f891682613849565b8355505b6001600288020188555050505b505050505050565b600081905092915050565b600061396b82612b6b565b6139758185613955565b9350613985818560208601612b87565b80840191505092915050565b600061399d8285613960565b91506139a98284613960565b91508190509392505050565b60006139c082612c1d565b91506139cb83612c1d565b92508282019050808211156139e3576139e2613666565b5b92915050565b60006080820190506139fe6000830187612d48565b613a0b6020830186612d48565b613a186040830185612d48565b613a256060830184612d48565b95945050505050565b600081519050613a3d81613164565b92915050565b600060208284031215613a5957613a58612aa6565b5b6000613a6784828501613a2e565b91505092915050565b6000606082019050613a856000830186612cb2565b613a926020830185612cb2565b613a9f6040830184612d48565b949350505050565b6000613ab282612c1d565b91507fffffffffffffffffffffffffffffffffffffffffffffffffffffffffffffffff8203613ae457613ae3613666565b5b600182019050919050565b600081519050919050565b600082825260208201905092915050565b6000613b1682613aef565b613b208185613afa565b9350613b30818560208601612b87565b613b3981612bb1565b840191505092915050565b6000608082019050613b596000830187612cb2565b613b666020830186612cb2565b613b736040830185612d48565b8181036060830152613b858184613b0b565b905095945050505050565b600081519050613b9f81612adc565b92915050565b600060208284031215613bbb57613bba612aa6565b5b6000613bc984828501613b90565b91505092915050565b7f4e487b7100000000000000000000000000000000000000000000000000000000600052601260045260246000fd5b6000613c0c82612c1d565b9150613c1783612c1d565b9250828203905081811115613c2f57613c2e613666565b5b92915050565b7f4e487b7100000000000000000000000000000000000000000000000000000000600052603160045260246000fd5b7f4e487b7100000000000000000000000000000000000000000000000000000000600052602160045260246000fd5b6000819050919050565b613ca681613c93565b82525050565b6000602082019050613cc16000830184613c9d565b92915050565b600060ff82169050919050565b613cdd81613cc7565b82525050565b6000608082019050613cf86000830187613c9d565b613d056020830186613cd4565b613d126040830185613c9d565b613d1f6060830184613c9d565b9594505050505056fea2646970667358221220e0cc1999354f15f145eae03c114fd2db2a019caa84b5e8db4ca675ec93bbf06064736f6c63430008170033",
  "linkReferences": {},
  "deployedLinkReferences": {}
}